:020000040000FA
:10000000B032002091020000891F0000691F00002B
:1000100000000000000000000000000000000000E0
:100020000000000000000000000000008B25000020
:1000300000000000000000001D200000C525000099
:10004000611E0000611E0000611E0000611E0000B4
:10005000611E0000611E0000611E0000611E0000A4
:10006000611E0000611E0000611E0000611E000094
:10007000611E0000611E0000611E0000611E000084
:10008000611E0000611E0000611E0000611E000074
:10009000611E0000611E0000611E0000611E000064
:1000A000611E0000611E0000611E0000611E000054
:1000B00000F002F800F0C1F80CA030C8083824188D
:1000C0002D18A246671EAB4654465D46AC4201D190
:1000D00000F0B3F87E460F3E0FCCB6460126334201
:1000E00000D0FB1AA246AB463343184734580000F1
:1000F00054580000103A02D378C878C1FAD8520791
:1001000001D330C830C101D504680C6070470000CD
:100110000023002400250026103A01D378C1FBD823
:10012000520700D330C100D50B60704710B56E295F
:1001300002D100F02DFC10BD702902D100F067FD46
:1001400010BD662902D105F0E7F910BD652902D17D
:1001500005F0E2F910BD672902D105F0DDF910BD07
:10016000612902D105F0E0F910BD03681B0A01D333
:1001700080231943692902D100F0D4FB10BD642902
:1001800002D100F0CFFB10BD752902D100F0CAFBEF
:1001900010BD6F2902D100F0E5FC10BD782902D115
:1001A00000F022FD10BDE92902D100F081FC10BD54
:1001B000E42902D100F07CFC10BDF52902D100F049
:1001C00077FC10BDEF2902D100F0D8FC10BDF82952
:1001D00002D100F017FD10BD0368DB0901D38023B5
:1001E0001943632902D101F016FA10BD732902D117
:1001F00001F019FA10BDE32902D101F023FA10BD74
:10020000F32902D101F026FA10BD002010BD1FB560
:100210000098019900F0EFFA01F082FA0400002042
:10022000002105F05DF8401C60600020002105F011
:1002300041F8E0601FBD10B510BD01F04AFA11464B
:10024000FFF7E5FF03F09EF901F06AFD03B4FFF745
:10025000F2FF03BC01F09AFD70B505460C46164648
:1002600002E00FCC0FC5103E102EFAD2082E02D39A
:1002700003CC03C5083E042E07D301CC01C5361FAD
:1002800003E021782970641C6D1C761EF9D270BDC4
:100290000748804707480047FEE7FEE7FEE7FEE71E
:1002A000FEE7FEE704480549054A064B7047000093
:1002B000E1250000B1000000B0020020B0320020B3
:1002C000B0220020B022002070B5064600F076FA79
:1002D000056830460B30C408E400B44201D8002061
:1002E00070BD68682A46002818D00168A14211D361
:1002F0000B46214608318B4208D3436801194B60F5
:1003000003681B1B0B605160046001E04168516091
:10031000001D70BD024640680028E6D121462846EF
:1003200000F054FA0028DCD170BD70B50446051FFA
:1003300000F044FA0068002C1AD0446801E020461E
:100340006468002C01D0AC42F9D301680A18AA42B3
:1003500004D12A6805468918016000E045602868D4
:100360004119A14205D1616869602168401828607F
:1003700070BD6C6070BD00001CB50C46064B7B4424
:1003800069460090204600F01CFB044600206946A8
:1003900000F02AFB20461CBD6706000030B5441C57
:1003A00003E00178401C00290DD08107F9D10B4BE7
:1003B000DD0104C8D11A91432940FAD0001B0A0676
:1003C00003D0C01E30BD001B30BD0A0401D0801E0A
:1003D00030BD0902FCD0401E30BD0000010101010A
:1003E00001E004C0091F0429FBD28B0701D502805C
:1003F000801CC90700D00270704700290BD0C307CA
:1004000002D00270401C491E022904D3830702D582
:100410000280801C891EE3E70022EEE70022DFE76E
:10042000002203098B422CD3030A8B4211D30023F1
:100430009C464EE003460B433CD4002243088B42CB
:1004400031D303098B421CD3030A8B4201D3944658
:100450003FE0C3098B4201D3CB01C01A524183094B
:100460008B4201D38B01C01A524143098B4201D305
:100470004B01C01A524103098B4201D30B01C01A30
:100480005241C3088B4201D3CB00C01A52418308AA
:100490008B4201D38B00C01A524143088B4201D3D7
:1004A0004B00C01A5241411A00D201465241104637
:1004B00070475DE0CA0F00D04942031000D34042AC
:1004C000534000229C4603098B422DD3030A8B42E2
:1004D00012D3FC22890112BA030A8B420CD3890180
:1004E00092118B4208D3890192118B4204D3890166
:1004F0003AD0921100E08909C3098B4201D3CB01A4
:10050000C01A524183098B4201D38B01C01A524158
:1005100043098B4201D34B01C01A524103098B425C
:1005200001D30B01C01A5241C3088B4201D3CB0047
:10053000C01A524183088B4201D38B00C01A52412A
:10054000D9D243088B4201D34B00C01A5241411A01
:1005500000D20146634652415B10104601D340422F
:10056000002B00D54942704763465B1000D34042E0
:1005700001B50020C046C04602BD704770477047B5
:10058000F0B5FF252D04C609C209FF2704462E40F9
:100590000137CB093E4348402A402B400746002AFA
:1005A0006BD0002B69D0AA4267D0AB4265D000283F
:1005B00000DA32460125ED0529432C4309022002C9
:1005C000090AD21A4B0C7F24E31A434C000A7C44DC
:1005D000E35C7D242404121914145B00A2188842E1
:1005E00001D3521C00E0400049420C465C432411F8
:1005F0005C43DB016415E318040A5C43C502200D6B
:100600000C4644436419250A5D432303EC0C0D4654
:10061000654300030019EB184C42A34201D35B1859
:10062000401CD4052018002B07D05B00C91804D348
:10063000401C002901D1400840003F2189048A4222
:1006400009D3002A08DC1106090F04D00321490749
:100650004018C00FC007F0BD0122410012068918E2
:100660007F2252069142F6D205214907C84201D5A0
:100670009010F0BDFF20C005F0BD002F00DA32461B
:100680001648AA4207D2AB4205D21902090E17D06A
:10069000F80FC007F0BDFF2563002D06AB42F9D867
:1006A0004900A942F6D8AB4201D1A942F2D0A942F1
:1006B00001D1002101E061004908D0050843F0BDE7
:1006C0001102090EFBD0FF200243D005F0BD0A46FF
:1006D0000146104654E700008A4F00000000C07F2A
:1006E00010B501469E240002CA15A307002A02D0B5
:1006F0001843002A04DBA21A002A0CDDD04010BDEA
:100700001206120E01D140004008A21A03D4D040B4
:1007100040420028F3DDFF2248001206904201D932
:10072000002010BDC817C043584010BD0102C215BB
:1007300004D00123DB071943002A0ADB9E239A1AFF
:1007400002D40846D0407047FF2241001206914271
:1007500001D900207047C017C04370471F22030C07
:1007600002D10F2200041CD0030E01D10002083A6E
:10077000030F01D10001121F830F01D18000921ECF
:10078000002801DB4000521ED205511802125118F8
:100790001922904004D3491C002801D1490849007E
:1007A00008467047C10FC90700D040420122920796
:1007B0001143D3E701218907D0E7000000487047C3
:1007C00058020020704770477047704738B504469C
:1007D0000A4600206946C046C046002805D00246A9
:1007E0002046009900F0E8FA012038BD10B501203C
:1007F00000F054FF10BDF8B5C046C04605460020C5
:100800000C461020C0460646A819A0420DD9324613
:1008100069460020C046C046070001D100F03EFFF7
:100820000098A04200D00546C419FFF7C7FFF61D87
:1008300007460560F008C0004619284600F008F891
:10084000B44204D031463868A21B00F0B5FAF8BDB6
:10085000002101604160806070471020704770B5D2
:10086000044685690068C10601D5302600E02026CF
:10087000C00707D070BD62683046A1689047206A03
:10088000401C20626D1EF6D570BD70B504468569AA
:100890000078C00707D170BD6268A168202090472A
:1008A000206A401C20626D1EF6D570BD09684A059D
:1008B00001D540B27047C905FCD500B27047096840
:1008C0004A0501D5C0B27047C905FCD580B2704752
:1008D00070B50C460546012A05D02878800600D55B
:1008E000EA69002302E0012305E05B1C934202D287
:1008F000E05C0028F9D1A869E618C01AA861286A46
:10090000C01828622846FFF7AAFF04E06A6820782A
:10091000A968641C9047B442F8D32846FFF7B5FF96
:1009200070BD0000F7B5002575291068009914A660
:1009300011D0FFF7BBFF002802DA404211A608E001
:10094000009909688A0701D50FA602E0490704D576
:100950000EA6012501E0FFF7B2FF009F0024243717
:1009600004E000F0A1FE30313955641C0028F8D1B4
:100970002B4632462146009800F075FAFEBD000075
:10098000000000002D0000002B00000020000000EF
:1009900011680268006A530501D5087009E0D305A3
:1009A00001D5088005E0130602D5C21705C100E095
:1009B000086001207047000001694A1C0261087844
:1009C000704700B58FB00291002105910549019350
:1009D0007944039111460490684600F025F90FB060
:1009E00000BD0000E5FFFFFF0A681070521C0A609E
:1009F00070470000F7B50446154686B02B4878448A
:100A0000002703C83E460090019111E007986A460E
:100A10007100415A02A800F021FE411C07D0217844
:100A2000890603D5E269391891420ED83F18761C21
:100A30002078800602D5E069B84206DDAE42E5DBEB
:100A400007987100405A0028E0D1A069C01BA0613E
:100A50002046FFF704FF154878445A3803C8009031
:100A60000020019116E041006A460798415A02A809
:100A700000F0F4FD0590401C0AD0002505E06268F6
:100A800002A8A168405D90476D1C05988542F6D389
:100A90000498401CB0420490E5DB206AC019206233
:100AA0002046FFF7F2FE09B0F0BD00009A4B0000AF
:100AB000F7B5D21D0025D20815A6D200F52905CA22
:100AC00011D0002A05DA00214042914111A60A46C0
:100AD00008E0009909688B0701D50FA602E04907D5
:100AE00001D50EA601251146009F0024243704E0FD
:100AF00000F07CF930323A55641C02460A43F7D1C3
:100B00002B4632462146009800F0ADF9FEBD0000AC
:100B1000000000002D0000002B000000200000005D
:100B200070B504460021243408E05507D2086D0F43
:100B3000303565545D072A43DB08491C15461D43C3
:100B4000F3D10468002310A2250708D520252C40E6
:100B50000C4304D0C46901230CA2641EC46100F0DC
:100B600082F970BD10B5044621461068FFF7A7FE54
:100B7000002302462046FFF7D3FF10BDD21DD10847
:100B8000C9000CC9CCE700000000000030000000E4
:100B9000F8B50F460188090502D5224C7C4402E0D5
:100BA000204C7C440E3405460021243508E016070D
:100BB0001209360FA65D6E541E0732431B09491CED
:100BC00016461E43F3D1224604780023240705D598
:100BD000702F06D0002901D00223113200F043F912
:100BE000F8BD01231032F9E770B504460D462146E1
:100BF0001068FFF764FE0023024629462046FFF7EF
:100C0000C7FF70BDD21DD308DB000CCBC0E730B4EA
:100C1000036820241268234303600823C36130BCA7
:100C20000023B5E7044A0000F3B50446002081B074
:100C300020622046E1688847002872D0252802D02B
:100C40006268A168ABE0594F00267F442046E16806
:100C500088472028054608DB312D06D27819203830
:100C60000078002801D00643F0E7B00701D5042042
:100C700086430020E0610746A0612A2D0AD028465D
:100C800002F00DF9002827D0B8000019303D00907F
:100C9000856119E00298BA00121902C891610290A8
:100CA0002046E1688847012F054617D1E0690028F2
:100CB0001FDA202086431CE000980A2180694843FF
:100CC00000994019303888612046E1688847054618
:100CD00002F0E5F80028EFD1012F0AD02E2D08D11F
:100CE0002046E16888470546202006437F1C022FE6
:100CF000C3DBA069002803DA4042A061012006435B
:100D0000F00701D0102086436C2D0BD0682D09D040
:100D10004C2D3CD06A2D38D0742D38D07A2D36D059
:100D200016E040E0E1682F4620468847B842054675
:100D300009D16C2F29D001208002E16806432046AA
:100D40008847054604E06C2F1DD0FF200130064384
:100D5000002D28D028464138192803D80120C00288
:100D600006432035204626602946029A1646FFF79C
:100D7000DDF9002810D001280BD0F61DF008C000C6
:100D80000830029055E74020E1E78020D5E70020B9
:100D9000D3E7361D02964CE762682846A168904763
:100DA000206A401C44E7206AFEBD00007E49000026
:100DB000004870475002002010B50346406801E02B
:100DC00003464068002801D08842F9D31868C31848
:100DD0008B4206D0CB1CD808C000001D411A521A05
:100DE0000146081D0A60FFF7A0FA10BD0B4670B55A
:100DF000024689078008084319469D08141AA9412C
:100E000025090807054308092C194841250A010648
:100E10000D43010A2C194141200C0D0428430D0CEF
:100E200000194D41002140194D41C0086907084390
:100E3000E908840F8D002543840024184D412419AE
:100E40006D41121BAB4107E00925ED432C115219EE
:100E500063410024401C61411C460A250026551BA5
:100E6000B441F1D270BDFFB504460D4681B02430C7
:100E700000902168880604D51022E0699143216022
:100E800000E00120A84201DD471B00E00027049894
:100E9000A1697A191018081AA0612078C00602D436
:100EA0002046FFF7DCFC002608E003986268A16892
:100EB000805D9047206A401C761C20620498864220
:100EC000F3DB2078C0060AD52046FFF7C8FC06E011
:100ED0006268A16830209047206A401C2062384632
:100EE0007F1E0028F4DC07E000986268A168405D7E
:100EF0009047206A401C206228466D1E0028F3DCC3
:100F00002046FFF7C2FC2078000602D5022005B07B
:100F1000F0BD0120FBE700007047FFB50C461E4600
:100F20008FB003CA089009914F007D0D00D16D1E4E
:100F3000002108460020C0460321099A890508407F
:100F4000002A03DA8200801840080840800D01283A
:100F50000A9002DD0020C0430A90089807430DD094
:100F6000EF48F049281848430714189800281DD066
:100F70007542291E1DDD0A9842421BE0189801287F
:100F800002D00020302104E00020F24305E021548B
:100F9000401CB042FBDB30460022189B002121544C
:100FA0000F998B600A60486013B0F0BDBD1B6D1CCB
:100FB000DFE70A9A002900DA69420BA800F0F8FB83
:100FC0000BAB07CB03AB07C30899099800F054FC9F
:100FD0006B4607C30146D4480918002D00910ADD6D
:100FE000D14903980A9A4942401803A903906846D8
:100FF00000F067FE07E003990A9A081803A9039016
:10100000684600F034FE6B4607C30004000C03D0B2
:101010000020C043410800E01046189A002A03D07F
:101020000022009215461EE0751E05D4FFF7DEFE75
:10103000303262556D1EF9D501220843079602D061
:1010400000227F1C04E02078302801D100227F1E7E
:10105000002A069789D01EE0112D07DAFFF7C6FE99
:10106000303262556D1C02460A43F5D1084303D065
:101070000098002819D00EE00021681E05E0235CCE
:10108000625C63542254401E491C8142F7DBA81B5A
:10109000401E07950690079A18990020A0540F98B3
:1010A000079B069A81600CC07EE7112600201890ED
:1010B0005BE7D21DF0B50D460446D10893B0C900D8
:1010C00003C90C900D9101F0C1FE02460D98C00FAE
:1010D00001D02D2007E02068810701D52B2002E0F8
:1010E0004007C00F4001032A0F9001D0072A05DBFB
:1010F00003462946204600F017FB0EE120788006C3
:1011000001D5E76900E006272846652D04D066284A
:1011100014D0672D69D12DE00020112F009001DB44
:10112000112300E07B1C0CAA03A910A8FFF7F5FE11
:101130001199002610987D1C0E9142E001203B463B
:101140000CAAC0070B900120009003A910A8FFF77C
:10115000E4FE119D12981099002600280E9501D1E9
:10116000781C0D18781B02D446427D1C761EE81BA5
:1011700000903AE0012F00DA01270020112F0090A3
:1011800001DD112300E03B460CAA03A910A8FFF7DC
:10119000C4FE11993D46109800260E91217809074A
:1011A0000BD40E99A94200DA0D4603A9012D04DDE6
:1011B0004A19203AD27F302A06D0B84201DA011DFE
:1011C00004DA012100910FE06D1EEFE7002802DC38
:1011D00086192D1A03E0411CA94200DD0D46801B33
:1011E000401C00900120C0070B902078000705D418
:1011F0000098A84202DB0020C0430090694600200E
:10120000C8720B98012102AF0337C907884225D065
:10121000022010902B2011900B9800280BDA4042EE
:101220000B902D20119006E00B9800F03DFA303124
:101230007F1E0B9039701099481E00291090F3DC26
:101240000B980028F0D111987F1E38702088000577
:1012500001D5452000E065207F1E387001A8C01B25
:10126000C01D0B900F98002800D001204119009854
:10127000C01709180B980818A169081A401EA06128
:101280002078C00602D42046FFF7E9FA0F9800281C
:1012900005D06268A1689047206A401C20622078CF
:1012A000C00625D52046FFF7DAFA21E0002E07DB3D
:1012B0000E98B04204DD03A86268805DA16802E078
:1012C0006268A16830209047206A761C401C20622A
:1012D0000098401E002800900AD100F021FAC06852
:1012E00062680168405CA1689047206A401C2062E7
:1012F00028466D1E0028D9DC07E062683878A168AE
:101300007F1C9047206A401C20620B99481E0029D0
:101310000B90F2DC2046FFF7B8FA032044E6000009
:1013200001FCFFFF104D0000E1DFFFFFD21DF0B513
:1013300004460D46D0088DB0C000466807683146A7
:10134000384601F083FD0246F00F01D02D2307E05F
:101350002068810701D52B2302E04007C00F43011D
:101360006846002B037001D0012000E00020032A12
:101370000A9001D0072A04DB2946204600F0D4F960
:101380002BE12078800601D40D2500E0E56970008E
:10139000400D0D2D01904BDA300D00210B900846C9
:1013A0000020C046032189050840002E05DA82008E
:1013B0008018C20F1018401008408015012801DD68
:1013C0000020C043A9000023182906D39C460A46E2
:1013D0000123183A1B07D34003E001221205CA403B
:1013E00094460C31202902D33A46203900E0324697
:1013F0008A40002802DD002A06D119E0002817D112
:101400000121C9078A4213D3194663467F185E41FA
:10141000002806D10120C007824202D10846874336
:101420009E430B98310D814202D00198401C0190DF
:101430002088000502D57049794402E06E4979445C
:1014400019396B460A9830221A540A980A7C401CB3
:101450001A54401C0A900198002801DC302000E05A
:1014600031201872019A0120002A02D0634BD21851
:1014700004E072003A4302D0604A521C0192002DEF
:1014800002DC2278120703D56A462E205072022011
:101490000022864694460CE032033601120F6D1E80
:1014A0008B5C02AA13546246521C401C9446052AC7
:1014B00001DA002DF0DC002202AE08E03B0F3F0114
:1014C000CB5C521C6D1E3354401C082A01DA002DDF
:1014D000F4DC2278920601D50FE0401E704504DD51
:1014E0003218203AD27F302AF7D0002805DD321892
:1014F000203AD27F2E2A00D1401E002D03DD3E224D
:101500003254401C6D1E497C31540199401C002905
:1015100006DA2D21471C315401984042019003E026
:101520002B21471C315401987D21C900884206DBDC
:10153000FEF780FF3030F0557F1C019101E06428F8
:1015400008DB01986421FEF775FF3030F0557F1CF1
:10155000019101E00A2806DB01980A21FEF76AFFE3
:101560003030F0557F1C01980A21FEF763FF3031BF
:10157000F1550A98A1697F1C7A191018081AA06100
:101580002078C00602D42046FFF769F9216A6E462A
:101590000A980818206204E062683078A168761C16
:1015A00090470A98401E0A90401CF5D12078C0064A
:1015B00002D52046FFF753F902AE09E03078761CD9
:1015C0003E280DD06268A1689047206A401C2062C6
:1015D0007F1EF3D22046FFF758F90DB00320F0BD6F
:1015E000206A4019206203E06268A16830209047B9
:1015F0006D1EEDD3F8E70000B441000001FCFFFFD1
:1016000010B54369002B02D0C046C04601E0FFF789
:101610005FF9012010BD1278014624310A700022C2
:101620004A700122ECE711680022D243E8E710B5C6
:101630004369002B02D0C046C04601E0FFF7DAF94B
:10164000012010BD12880146243182840022C28408
:101650000122ECE711680022D243E8E770B5164694
:101660000C46054600F054F80368FF200230C05CC9
:10167000012807D0FF2C0ED8185D00280BD00120C0
:101680002C7070BDFF333246214608331868C318EA
:101690002846984770BD0020C04370BD10B500F0CB
:1016A0004DFB00F045FB10BD01468008081A0209F9
:1016B0001018020A1018020C1018C0088200121824
:1016C0005200891A01E0401C0A390A29FBD27047EE
:1016D00070477546FFF76CFBAE46050069465346FA
:1016E000C008C000854618B020B5FEF7DBFD60BC21
:1016F00000274908B6460026C0C5C0C5C0C5C0C53C
:10170000C0C5C0C5C0C5C0C5403D49008D46704775
:1017100010B500F005F8001D10BD00BFC53B00006E
:101720000048704770020020F8B51F4604460123A8
:101730000068DB02032601461840072A05DB002863
:1017400001D017A506E017A504E0002801D016A5D2
:1017500000E016A5102081432160A069C01E002F63
:10176000A06101D0401EA0612046FFF778F8002F4D
:1017700009D038466268A1689047206A401C206200
:10178000C01C206206E0206AFAE762682878A16837
:101790006D1C9047761EF8D22046FFF776F8F8BD0C
:1017A0004E414E006E616E00494E4600696E660005
:1017B000F7B516468AB02F4878446C4603467C330A
:1017C000C06F5A689B680DC42A487844763003ACD1
:1017D0000DC80DC43720C001081837211B30FEF793
:1017E00029FE05460C46803D1B3C02D56442012083
:1017F00000E00020002709900FE0E0070BD00C204C
:101800001C497843794432464C394118684600F007
:101810002EFA6B4607C364107F1C002CEDD1154FC8
:101820007F442C3F15E0E80711D02001C0190EC8F5
:101830000691089307920068F04201D19819089028
:10184000324606A903A800F012FA03AB07C36D10D5
:10185000641C002DE7D1324669460998002803A888
:1018600002D000F02EFA01E000F001FA0A9B07C353
:101870000DB0F0BD483E0000034640000A4610B5DA
:10188000400D0BD00121C9070F24A40200191C032D
:1018900064082143540D2143D20207E000210120B6
:1018A000F2E7D40F490021435200401E0029F8DA24
:1018B000DB0FDB07184310BDFFB50D46144685B09E
:1018C0004868516801F09CFA00910190A868A168ED
:1018D00001F096FA02910390A868616801F090FA0D
:1018E000029A12188242029201D2012000E00020E6
:1018F000019A0B18D2180028019202D08A4202D90C
:1019000003E08A4201D2012000E00020009908187B
:1019100000906868A16801F073FA029A1218824276
:10192000029201D2012000E00020019A0B18D21887
:101930000028019202D08A4202D903E08A4201D2F1
:10194000012000E000200099081800902868216814
:1019500040004900400849084018EE49471814E083
:1019600001994000C90F0843009001980299400076
:10197000C90F08430190029803994000C90F08431A
:101980000290039840007F1E039000980028E7DA39
:101990000898002801D0E04E00E00026B74228DA7F
:1019A000F71BF806C00E15D0029B2021091A039AD6
:1019B0008B401A430392029A019BC2408B401A4308
:1019C0000292019A009BC2408B4000991A430192F7
:1019D000C14000917A110BD06B460320811A01D5CA
:1019E000002101E0890059588700401ED951F5D5E2
:1019F000374603980299002800D001200143089837
:101A00000291002808460CD0002800D0012001993E
:101A1000019A490508430121D20AC902D202019262
:101A200000E001210E9B0122D207012B02D0002BE6
:101A300003D013E0002807D116E0904204D890426A
:101A40000CD1019B0B4209D0019B5918019105D182
:101A50000099491C009101D17F1C0092002803D0FD
:101A6000102108460020C04628682168019B009A82
:101A70004840C10F0598C90739430EC009B0F0BDF1
:101A8000FFB587B0099A089808995368926840682A
:101A9000896896460022039317469446089A12686E
:101AA0005300099A5B081268520052089A1A9B4B1D
:101AB000D4180A9A002A01D0352200E0402206926A
:101AC0000022012315460492DB07059324E0002D34
:101AD00005D175460346039E4D1BB34109D3754698
:101AE0006646039B491B049D9841059B7519AC46AE
:101AF0005F4163463B4308D0059B049EDD077608A3
:101B00002E435B080496059301E0521E641EC50F28
:101B1000ED0749184041521C069B9A42D7DB002D25
:101B200004D17546039A6B1A824101D203200CE05E
:101B3000039A0B466B404240134303D0014303D04A
:101B4000012002E0022000E0002061460191002116
:101B5000009702910A99002905D06146400201438D
:101B60006D4B019102E08007002302909C423ADA1B
:101B70001A1BD006C00E15D0029D2021019C091A07
:101B8000C5408C402543029C8C4000D00124254355
:101B9000019C02953D46C4408D4039462C43C140CE
:101BA0000194009154111DD06D460221002202299A
:101BB0000CD10320001B07E0002804DB8600AE598F
:101BC000002E00D00122401C0328F5DB081B02D5A3
:101BD00088002A5004E08000285810438A00A8504A
:101BE000491EE3D51C460A98002802980CD000280C
:101BF00000D001200199019A490508430121D20A28
:101C0000C902D202019200E00121109B0122D207F9
:101C1000012B02D0002B03D013E0002807D116E0DF
:101C2000904204D890420CD1019B0B4209D0019BF9
:101C30005918019105D10099491C009101D1641CEA
:101C40000092002803D0102108460020C0460898C2
:101C50000999019A0068096848400099C30F0798DC
:101C6000DB0723430360826041600BB0F0BD1FB50A
:101C7000002300920A46014601A8FFF71DFE01ABB2
:101C800007CB04B010BD1FB5012300920A460146E0
:101C900001A8FFF711FE01AB0F2407CBA402C30F6D
:101CA0004000DB074008001B002900DB0020490042
:101CB00000054908CC0A204349051843D20A1143BC
:101CC000DFE71FB5002300920A46014601A8FFF78F
:101CD000D7FE01AB07CBD4E71FB5012300920A461C
:101CE000014601A8FFF7CCFE01AB0F2407CBA402ED
:101CF000C30F4000DB074008001B002900DB002069
:101D0000490000054908CC0A204349051843D20A76
:101D10001143B6E702C0FFFF013C0000FF3F000097
:101D200010B50446C046C0462046FEF78FFA10BDE7
:101D300010B5002801D000F029F810BD10B5012819
:101D400005D0002103A000F027F8012010BD09A153
:101D5000F8E7000053494752544D454D3A204F751E
:101D600074206F662068656170206D656D6F727993
:101D7000000000003A2048656170206D656D6F724B
:101D80007920636F72727570746564000149182060
:101D9000ABBEFEE72600020070B505460C460A20E1
:101DA00000E06D1C00F056F8002D06D028780028C1
:101DB000F7D102E0641C00F04DF8002C02D020782E
:101DC0000028F7D10A2000F045F870BD024670B532
:101DD0000A4392072AD11E4DEE0104C808C9541BBC
:101DE0009443344017D0D0B2D9B2401A21060143EF
:101DF00010D190B299B2401A210401430AD11002C5
:101E00001902000A090A401A2102014302D1100EE8
:101E1000190E401A70BD9A42DFD010BA19BA884222
:101E200001D9012070BD0020C04370BD02780B783D
:101E3000401C491C002A09D09A4207D102780B782D
:101E4000401C491C002A01D09A42EFD0D01A70BD24
:101E50000101010108B5694608700320ABBE08BD49
:101E600010B500BFEFF305800446103CE0000649C2
:101E70000858002806D0E2000B46D2185068E2004D
:101E80009958884710BD0000C000002010B50446D6
:101E9000002C01D1001F10BD207801F007FB60600D
:101EA0006068002801D1001FF5E721780D3148B2A4
:101EB00001F0D2F90020EEE770B504461546002285
:101EC000002C02D06068002802D10320C04370BDFE
:101ED000606802681046084088421DD06068426809
:101EE000002B0BD0012B13D1002D01D0080402438D
:101EF000104608430246606842600AE00E0410463D
:101F0000B04302461046884302466068426000E0E3
:101F100000BF00BF0020DAE70020C043D7E710B5BC
:101F200003460C460021002B02D05868002802D13D
:101F30000320C04310BD586801615868C168002A79
:101F400007D0012A0BD10846204301465868C160DA
:101F500006E00846A04301465868C16000E000BFA3
:101F600000BF0020E6E7000002A000F083FC00BFF5
:101F7000FEE70000486172644661756C745F4861F9
:101F80006E646C65720D0A0001218907086970474B
:101F9000C206D20E01219140014A11607047000033
:101FA00080E100E010B5002819DA1A4A03071B0F78
:101FB000083B9B089B00D2588307DC0EFF23A340FD
:101FC0009A438B071B0E8407E40EA3401A43114B60
:101FD0000407240F083CA408A4001A5118E00E4A74
:101FE00003231B02D21883089B00D2588307DC0E00
:101FF000FF23A3409A438B071B0E8407E40EA340E4
:102000001A43054B032424021B198408A4001A5107
:1020100010BD00001CED00E000E100E000BFFEE7A5
:1020200010B50924E443FF21074800F093FA044661
:10203000002C04D005A000F01DFCFF2010BD0248BC
:1020400000F06EFAC0B2F9E7A00100205350495FDA
:102050005772697465204661696C6564200D0A00D9
:102060000246002A01D1001F7047012904D11068DF
:1020700080231843106003E01068802398431060A9
:102080000020F1E70246002A01D1001F7047012914
:1020900004D1106840231843106003E01068402307
:1020A000984310600020F1E70246002A01D1001F8A
:1020B0007047106800090001106010680B091B01CF
:1020C0000B43184310600020F2E70246002A01D1BA
:1020D000001F7047002904D0012907D002290FD121
:1020E00009E0506A0223184350620AE0506A012353
:1020F0001843506205E0506A03231843506200E021
:1021000000BF00BF0020E4E70146002901D1001F05
:10211000704748680222104348600020F8E70246F2
:10212000002A01D1001F70471068302398431060C7
:1021300010688B089B000B431B01184310600020A4
:10214000F1E70246002A01D1001F7047002902D0A2
:1021500001290AD104E0506804239843506005E047
:10216000506804231843506000E000BF00BF002007
:10217000EBE70246002A01D1001F70471068FF23D9
:102180001B029843106010680B0A1B020B431B02D2
:10219000184310600020F0E700B50346002B01D182
:1021A000054800BD00BF0421184600F007F80028CC
:1021B000F9D0986880B2F4E7FCFF00000246D068CE
:1021C0000840002801D0012070470020FCE710B52E
:1021D00003460C46002B01D1001F10BD00BF022199
:1021E0001846FFF7EBFF0028F9D09C600020F4E7C9
:1021F00070B50446002C02D0E068002802D103200C
:10220000C04370BD2078022805D1217AE06800F033
:1022100057F8054604E0217AE068FFF721FF0546FC
:102220002846EEE770B50446002C02D0E06800288E
:1022300002D10320C04370BD2078022805D1E17986
:10224000E06800F04FF8054604E0E179E068FFF748
:1022500019FF05462846EEE770B50446002C02D06B
:10226000E068002802D10320C04370BD2078022816
:1022700005D12179E06800F047F8054604E02179AE
:10228000E068FFF711FF05462846EEE770B5044603
:10229000002C02D0E068002802D10320C04370BDAA
:1022A0002078022805D1E178E06800F040F8054682
:1022B00004E0E178E068FFF708FF05462846EEE70E
:1022C0000246002A01D1001F7047012904D110687D
:1022D00020231843106003E0106820239843106007
:1022E0000020F1E70246002A01D1001F70470129B2
:1022F00004D1106810231843106003E01068102305
:10230000984310600020F1E70246002A01D1001F27
:10231000704710680F231B029843106010680B0968
:102320001B010B431B02184310600020F0E702461C
:10233000002A01D1001F7047002904D0012907D0CD
:1023400002290FD109E050684023184350600AE089
:10235000506880231843506005E05068C02318433C
:10236000506000E000BF00BF0020E4E70146002904
:1023700001D1001F70470868012210430860002047
:10238000F8E70246002A01D1001F704710680C23AD
:102390009843106010688B089B000B439B00184308
:1023A00010600020F1E70246002A01D1001F7047AB
:1023B000002902D001290AD104E0106802239843C1
:1023C000106005E0106802231843106000E000BFB1
:1023D00000BF0020EBE70246002A01D1001F704732
:1023E00010680F231B039843106010680B091B0132
:1023F0000B431B03184310600020F0E700B50346B1
:10240000002B01D1054800BD00BF0221184600F095
:1024100007F80028F9D0D86880B2F4E7FCFF000084
:10242000024690680840002801D001207047002033
:10243000FCE710B503460C46002B01D1001F10BD70
:1024400000BF04211846FFF7EBFF0028F9D0DC603D
:102450000020F4E770B50446002C02D0E0680028A4
:1024600002D10320C04370BD2078022804D1E06867
:10247000FFF77CFF054603E0E068FFF745FE0546F1
:102480002846F0E770B50446002C02D0E06800282A
:1024900002D10320C04370BD2078022805D16179A4
:1024A000E068FFF76EFF054604E06179E068FFF73A
:1024B00036FE05462846EEE770B50446002C02D0ED
:1024C000E068002802D10320C04370BD20780228B4
:1024D00005D1A178E068FFF766FF054604E0A17822
:1024E000E068FFF72EFE05462846EEE770B5044685
:1024F000002C02D0E068002802D10320C04370BD48
:102500002078022805D1A179E068FFF764FF05462D
:1025100004E0A179E068FFF72CFE05462846EEE7C7
:1025200070B50446002C02D0E068002801D10848AC
:1025300070BD2078022804D1E068FFF75FFF0546F0
:1025400003E0E068FFF728FE05462846F0E70000B4
:10255000FCFF000070B504460D46002C02D0E06878
:10256000002802D10320C04370BD2078022805D185
:102570002946E068FFF75DFF064604E02946E0686B
:10258000FFF725FE06463046EEE700BFFEE70000F7
:1025900010B50446601E0949884201D9012010BDCA
:1025A000601E074948610321081FFFF7FBFC00205C
:1025B00003498861072008610020F0E7FFFFFF0062
:1025C00000E000E005480068401C04490860084637
:1025D0000068401C002800D10860704708000020F7
:1025E00010B509480949086000F088FC01F04AF874
:1025F00000F048FE7D21C90004480068FDF710FF87
:102600000446FFF7C5FF10BD00D8B8050C00002038
:102610000146002902D04868002802D10320C043A7
:1026200070474868C06A102290434A68D062002010
:10263000F6E730B50346002B02D05868002802D1D7
:102640000320C04330BD4807400FD40038252C403C
:1026500020435C6860635868C06A102420435C684B
:10266000E0620020EEE70000FFB581B004461546A9
:102670001F460A9E31A000F0FDF8002C02D06068D1
:10268000002803D10320C04305B0F0BD0298002804
:1026900004D0012813D0022843D124E06068806B65
:1026A0002021084361688863002D07D0207800014D
:1026B00027490D50207800014018476034E06068D9
:1026C000806B1021084361688863002E0AD020784F
:1026D00000011F4940188660217809011C4A8918A9
:1026E0000B98C86020E06068806B30210843616807
:1026F0008863002D07D02078000115490D502078FF
:10270000000140184760002E0AD0207800011049CF
:1027100040188660217809010D4A89180B98C86015
:1027200002E00320C043AFE700BF2178173148B271
:102730002246084900F0BCFD0020A5E70D0A2069EB
:1027400063682062696E2068696572200D0A000066
:1027500090000020C14B00000246002A02D05068C1
:10276000002802D10320C0437047002904D001296A
:102770000AD0022918D10FE05068006BFF23013303
:1027800018435368186312E05068006B01235B0222
:102790001843536818630AE05068006B03231B0258
:1027A00018435368186302E00320C043DCE700BF0E
:1027B0005068006B01231843536818630020D3E767
:1027C00070B50446002C01D1001F70BD207802F0C6
:1027D000C7F960606068002801D1001FF5E76068F4
:1027E000006B1A490840616808636068C06A60212C
:1027F00088436168C8626068406C15490843616835
:1028000048646068806BC00AC00261688863217890
:10281000173148B200F020FD204600F0D3F80546FD
:10282000002D01D02846D0E7204600F075F8054677
:10283000002D01D02846C8E72046FFF7E9FE0546EF
:10284000002D01D02846C0E70020BEE7FEFCFFFFB8
:10285000FF07000010B5044604480460FF20013063
:10286000FDF732FD0249086010BD000000000020A5
:10287000040000200FB438B51B480068002804D0BD
:10288000194800684068002803D138BC08BC04B06F
:102890001847042115480068FDF7BEFD05A8009003
:1028A0001248009A04990068FDF766FD0020009028
:1028B0000E480068FDF772FD0446FF200130844297
:1028C00001DD044600E000BF64232246074801689A
:1028D0000548006800F08AF80F2189016143084625
:1028E00000F0CAFA00BFD0E700000020040000207A
:1028F0000146002902D04868002801D1FC20704719
:1029000000BF48688069102210400028F9D148684B
:102910000068C0B2F3E70000F0B585B00446002CB3
:1029200002D06068002803D10320C04305B0F0BD89
:102930006068006B4008400061680863A06801019E
:102940001D48FDF76DFD0546A8B26168486228463E
:10295000FDF730FF0290A1680801FDF72BFF01464B
:1029600000901648FDF70CFE0190029902F06CFDF4
:102970008521C905039002F00FFD0746104938462E
:1029800002F00AFD0390FDF7D1FE06460A2130460B
:10299000FDF746FD0E46052E05D97F21C9053846AF
:1029A00002F0B4FC07463846FDF79AFE8006800E1A
:1029B000616888620020B9E7006CDC02001B374CBC
:1029C000000020410146002902D04868002802D1B9
:1029D0000320C04370474868C06A0A7B52016023E5
:1029E0001A4010434A68D0620020F3E7FEB504465F
:1029F0000E4617461D460296019700F0F1FC009026
:102A0000002C02D06068002802D10320C043FEBD24
:102A10001BE00AE0002D08D000F0E2FC0099401A0B
:102A2000A84202D90420C043F1E7606880692021F0
:102A300008400028EED1029800786168086002988A
:102A4000401C02900198401E019001980028E0D19E
:102A500000BFDCE710B50924E44301220221064847
:102A6000FFF75DFA0446002C03D004A0FFF702FF35
:102A700010BD00BFFCE70000100000204750494F88
:102A80005F577269746550696E204661696C656450
:102A9000200D0A0000B585B0144B0FCB049301AB99
:102AA00007C31349134801F029FC1349134801F0E7
:102AB0000FFCFFF7CFFF0021684601700121417034
:102AC0008170C17002F092FB06220D4909200002BC
:102AD00000F028F901A9012000F0D8FA401C0028D4
:102AE00002D108A0FFF7C6FE05B000BD4C5500009E
:102AF000C12D000021200000552A0000392B0000C4
:102B0000440000200D0A2063746C77697A63686959
:102B100070202857495A5F696E69742920455252BE
:102B20004F522E0D0A00000010B50249002000F09F
:102B300085FA10BD1900002010B50924E4430022D5
:102B400002210648FFF7EBF90446002C03D004A04D
:102B5000FFF790FE10BD00BFFCE700001000002052
:102B60004750494F5F577269746550696E204661DE
:102B7000696C6564200D0A0038B504461F498868F1
:102B800080471E490869804700BF1C48006A00282A
:102B900003D01A48406A002812D1FF2212042240B2
:102BA000100C164AD1698847FF2212022240100AEF
:102BB000124AD1698847E0B2104AD169884711E0CA
:102BC000FF2000042040010C68460170FF20000235
:102BD0002040010A68464170847008480321426A17
:102BE0006846904705498869804705460349486912
:102BF00080470249C8688047284638BD58000020F1
:102C0000F8B504460E46174624498868804723498C
:102C10000869804700BF2148006A002803D01F4888
:102C2000406A00281CD1FF2212042240100C1B4ACB
:102C3000D1698847FF2212022240100A174AD1693F
:102C40008847E0B2154AD1698847002505E0134955
:102C5000886980477055681C85B2BD42F7DB16E075
:102C6000FF2000042040010C68460170FF20000294
:102C70002040010A68464170847008480321426A76
:102C80006846904705483946026A304690470349EE
:102C9000486980470149C8688047F8BD580000204E
:102CA00038B504460D461E49886880471C490869A6
:102CB0008047042004431A48406A002816D1FF22A6
:102CC00012042240100C164AD1698847FF221202D2
:102CD0002240100A124AD1698847E0B2104AD169ED
:102CE00088470F48C1692846884712E0FF20000442
:102CF0002040010C68460170FF2000022040010ABC
:102D0000684641708470C57005480421426A68466F
:102D100090470349486980470149C868804738BDE2
:102D200058000020F8B504460E4617462349886827
:102D30008047224908698047042004431F48406AAD
:102D400000281CD1FF2212042240100C1B4AD1691A
:102D50008847FF2212022240100A184AD169884788
:102D6000E0B2164AD1698847002505E0705D134A34
:102D7000D1698847681C85B2BD42F7DB16E0FF20A9
:102D800000042040010C68460170FF200002204032
:102D9000010A68464170847008480321426A684607
:102DA000904706483946426A304690470349486989
:102DB00080470249C8688047F8BD000058000020DD
:102DC00070B504460925ED4321460748FFF7C2FBCD
:102DD0000546002D03D005A0FFF74CFD70BD02484D
:102DE000FFF79EFB00BFF9E7A00100205350495FA9
:102DF0005772697465204661696C6564200D0A002C
:102E0000F8B5040C8BB2264682B25E431046584396
:102E10000D0C370C360400218019164679416E439B
:102E2000370C36048019264679416E438919F8BD5E
:102E300030B47446641E2578641CAB4204D3635DD1
:102E40005B00E31830BC18471D46F8E74900CA028A
:102E50000243100000D004204A0D01D0012210438B
:102E6000044A490D914201D102210843012800D1B1
:102E700005207047FF070000002101E000BF491C4A
:102E80008142FBD9704770B5044600F0A9FA0546A7
:102E900000BF00F0A5FA401BA042FAD370BD303845
:102EA0000A2801D20120704700207047F8B5034678
:102EB000481000900025002400220AE050001C5C0D
:102EC00024025000401C185C001984B22D19501CBB
:102ED00082B200988242F1DB0846CF0F3F187F1084
:102EE0007F00CF1B03D050001C5C20024519AEB2FE
:102EF000280C8019C04386B23046F8BD10B50020BA
:102F0000C0430B49C860000C094980310862094878
:102F1000806801210843074988600846406801210C
:102F200008430449486000F06FFF00F005F810BD49
:102F30004000004000F0FFFFFF2005301549086306
:102F400000BF144800680721090408408842F8D1EE
:102F50001320104948634020886300BF0D48006873
:102F60000121090508408842F8D10B480949C86386
:102F700000BF084800680121890508408842F8D14F
:102F800006480449403148600020C0438860C8605A
:102F900070470000001000400003030000550400CB
:102FA00010B5044600BF082C02DD0020C04310BD50
:102FB00000BFA100491CC900C81DF9301021FFF74E
:102FC0006FFE00BFA100491CC900C81DF930FFF702
:102FD000D3FD0028F6D1A100491CC900C81DFF304F
:102FE000FA301F21FFF75CFE0120A0400F4909883D
:102FF00081430E4801800120A0400D49098881438A
:103000000B480180002061000A4A50520A490855C5
:1030100000BFA100491CC900032212028818FFF753
:10302000ABFD0028F5D10120C1E7000038000020E9
:103030003A000020EE0100203C00002070B505465B
:103040000C462B00FFF7F4FE0604080C1014181CA5
:10305000204601F0C3FF16E0204601F021FF12E0F8
:10306000207801F0E7FF70BD01F048FF20700AE012
:10307000204601F0F6FF06E0204601F044FF02E0A2
:103080000020C043EFE700BF0020ECE7FEB5064696
:103090000C4600250020009001903300FFF7C8FE89
:1030A00010090C1B171F2327333F5154585C5D61D7
:1030B0006C7701F0ECFF6DE0002C03D000940098D9
:1030C000083001900199009801F030FFFEBD208882
:1030D00001F0A7FE5EE001F0B9FE20805AE02088F2
:1030E00001F06CFF56E001F0C7FE208052E020881E
:1030F000011213200002FFF7D3FD21780520800282
:10310000FFF7CEFD46E013200002FFF735FD070272
:1031100005208002FFF730FD381820803AE01F4874
:10312000807820701D48C07860701C480079A070BD
:103130001A484079E0701948807920710020607148
:1031400028E002F037F825E0204602F04FF821E0B1
:10315000204601F0D5FF1DE01CE0207802F074F855
:10316000B4E702F018F8C5B268B2401C002801D1DB
:10317000401EABE725700DE001F0FFFFC5B268B25D
:10318000401C002801D1401EA0E7257002E000206D
:10319000C0439BE700BF002098E7000058000020D4
:1031A00010B5044600BF082C02DD0020C04310BD4E
:1031B00000BF00BFA100491CC800FFF7DDFC0007ED
:1031C000000F012802D00420C043F0E700BFA10097
:1031D000491CC900C81DF9300821FFF761FD00BF77
:1031E000A100491CC900C81DF930FFF7C5FC002823
:1031F000F6D10120A0401649098881431448018076
:103200000120A040134909880840002801D000206F
:10321000CDE711E0A100491CC900C81DFF30FA30FC
:10322000FFF7AAFC08210840002805D02046FFF738
:10323000B7FE0C20C043BAE7A100491CC900032215
:1032400012028818FFF798FC0028E3D10120AEE7AE
:103250003A0000203800002010B504461C2C02DB88
:103260000020C04310BD0020E100054A5050E1009D
:10327000891848602046FEF78BFE0020F2E7000028
:10328000C000002010B562B600240BE00020E10071
:10329000064A5050E100891848602046FEF778FE43
:1032A000601C44B21C2CF1DB10BD0000C0000020EB
:1032B00010B503461C2B02DB0020C04310BD0029C3
:1032C00001D1481EFAE7D8000B4C2150D800001954
:1032D000426000BFDC06E40E0120A040074C2060E5
:1032E00000BF00BFDC06E40E0120A040044C2060BB
:1032F00000BF0020E2E70000C000002080E200E004
:1033000000E100E070B504460025002600BFA100E2
:10331000491CC900132252028818FFF72DFC0646EB
:10332000A100491CC900132252028918C81DF93096
:10333000FFF722FC3102401886B2002E15D0A10002
:10334000491CC900132252028818FFF715FC0546D4
:10335000A100491CC900132252028918C81DF93066
:10336000FFF70AFC2902401885B2B542CFD12846A2
:1033700070BD70B504460025002600BFA100491CA1
:10338000C900012252038818FFF7F6FB0646A10088
:10339000491CC900012252038918C81DF930FFF7E2
:1033A000EBFB3102401886B2002E15D0A100491C5B
:1033B000C900012252038818FFF7DEFB0546A10071
:1033C000491CC900012252038918C81DF930FFF7B2
:1033D000D3FB2902401885B2B542CFD1284670BD33
:1033E00001480068704700000800002010B586B052
:1033F000012400216846017401210172022101703B
:1034000004A8FEF743FD02A8FEF740FD6846FEF75C
:103410003DFD01230022244904A8FEF74DFD0123B0
:103420000022102102A8FEF747FD012300222021DF
:1034300002A8FEF741FD01230022402102A8FEF769
:103440003BFD01230022802102A8FEF735FD012368
:103450000022990202A8FEF72FFD01230022D902C3
:1034600002A8FEF729FD01230022190302A8FEF796
:1034700023FD01230022590302A8FEF71DFD0123AD
:103480000022990302A8FEF717FD01230022D903A9
:1034900002A8FEF711FD0123002203496846FEF74A
:1034A0000BFD06B010BD0000FFFF00000146002923
:1034B00004D0012904D0022906D103E00448704752
:1034C0000448FCE70448FAE700BF00BF0020F6E725
:1034D000000002400010024000200240014600208F
:1034E0000A06100C0A04120E1043704710B5044669
:1034F00000BF082C02DD0020C04310BD00BF00BF8C
:10350000A100491CC800FFF737FB0007000F012886
:1035100002D00420C043F0E700BF00BFA100491C57
:10352000C900032212028818FFF726FB132802D0D5
:103530000220C043E1E700BFA100491CC900C81D2B
:10354000F9300221FFF7ACFB00BFA100491CC90004
:10355000C81DF930FFF710FB0028F6D105E0204622
:10356000FFF71EFD0320C043C7E7A100491CC900A7
:10357000032212028818FFF7FFFA1428EFD1012066
:10358000BBE700001FB52EA0006803902DA00068C7
:10359000029000202C490870E1204002886003203E
:1035A00008730846FFF70CF90446002C02D02046A9
:1035B00004B010BD002204212348FFF73AF8044666
:1035C000002C01D02046F3E71F48FFF721F8022125
:1035D0001D48FFF7C1F80446002C01D02046E7E75C
:1035E00019481A4900231A46009101900121FFF75A
:1035F0003BF81548FFF72EF91348FFF709F8044682
:10360000002C01D02046D3E705211148FCF706FF26
:10361000FFF7ECFE01F05EFAFFF73CFAFFF784FAE1
:103620000C4801F03DFC03A800F0B0F906E07D2055
:10363000C000FFF728FC002000F07EFEF7E7000046
:10364000C0A800052A000000B00100205D4C000069
:1036500030000020C00100200848810708620020D7
:10366000074908604860C905486205498860C86024
:10367000C90588620249086148617047C9F00000C5
:103680008000004000B5C1B02D2135A8FCF7C6FE72
:103690002248006834902D2128A8FCF7BFFE1F485F
:1036A000001D006827902D211BA8FCF7B7FE1B48C2
:1036B000083000681A902D210EA8FCF7AFFE1748BD
:1036C0000C3000680D902D2101A8FCF7A7FE1348CF
:1036D000103000680090FFF7BFFF002134A800F011
:1036E00023F8012127A800F01FF802211AA800F0F2
:1036F0001BF804210DA800F017F80521684600F01A
:1037000013F807480749886200BF0648806A0449E1
:1037100008400028F9D041B000BD00003855000035
:103720007D70F73E40100040F0B588B002460C4670
:103730001378312B01D108B0F0BD002065E0860080
:10374000344FF6190796C600324F6037F31900253B
:103750000026069605960607360E04960601F61D07
:10376000F6B2039606010836F6B2029606010F3647
:10377000F6B20196002137E0565C312E00D135E0DB
:10378000575C049EB74213DB575C039EB7420FDCC5
:10379000565C0701F61B0096009EB7002646BE4009
:1037A000069F3E4306960126009FBE40354300BF5C
:1037B000575C029EB74216DB575C019EB74212DC93
:1037C000565C083E0701F61B0096009EB700264691
:1037D000BE40059F3E430596009E374608370126AA
:1037E000BE40354300BF491C3029C5D300BF079EEA
:1037F00036682E43079F3E601E68069F3E431E604C
:103800005E68059F3E435E60401C032897D300BF5F
:1038100091E7000020000040F8B50E460027002583
:103820000020044673E06120C000FFF7A5F90028DE
:1038300002D0322853D124E00020FFF7B1FB012150
:103840003548FFF72DFA0023344A0321184601F0CA
:1038500073F8002805D0002131A0FFF70BF80120F4
:10386000F8BD00BF6120C000FFF786F93228F9D10A
:103870007D20C00001F008FA7D20C00001F004FAAC
:103880002EE03146002000F003FA2B480078401C5F
:103890002949087020E00020FFF734FD071E0FDDE6
:1038A000BAB23146002000F0BDF824480078401C30
:1038B000224908700846017821A0FEF7DBFF0CE0E2
:1038C000642D04DD21A0FEF7D5FF002505E0681C6E
:1038D000C5B2322001F0D8F9DDE700BF00E000BF3B
:1038E00000BF1548007805280EDB144802781248FE
:1038F00001781CA0FEF7BEFF10480078002801D018
:103900000320ADE70420ABE7601CC0B20446052CE1
:1039100089DD00BFA4E7000008140000B80B000018
:103920000D0A20736F636B657420256420666169DE
:103930006C20720A000000008B0000208C00002028
:103940007265703A2025642E200D0A00526571754B
:103950006573742054696D65206F75742E200D0A8F
:103960000000000050696E672052657175657374C0
:10397000203D2025642C2050494E475F5265706CD5
:1039800079203D2025640D0A000000007CB5044626
:1039900000251BA0006801901AA0006800901AA0E2
:1039A000FEF768FF29E00EE01C480078612809D185
:1039B0007D200001FFF767FA21460020FFF72CFF6A
:1039C000054601E000BFEFE700BF032D0AD17D20CF
:1039D000C000FFF758FA6423032201A91048FFF73B
:1039E00005F809E07D20C000FFF74DFA64230322AB
:1039F00069460B48FEF7FAFF00E0D4E700BF7CBD44
:103A0000737300006666000050696E6720436C693E
:103A1000656E7420546573740D0A00001800002050
:103A2000B0010020F7B5B2B00C46174670491091AE
:103A300010A823463A4611A90090329800F010FBD6
:103A400080B2319010A80079002860D110A80179C7
:103A50006846017610A841796846417610A8C07979
:103A6000010210A88079081801B26846418310A8A5
:103A7000407A010210A8007A081801B268468183D2
:103A800010A8C07A010210A8807A081801B268460E
:103A9000C183002508E02846083011A9085C41B21E
:103AA00008A84155681C85B231980838A842F2DC54
:103AB00011A83199FFF7FAF9C04386B24D48864202
:103AC00004D031464CA0FEF7D5FE8DE06946C98B87
:103AD00088B2FFF703FD69460590898B88B2FFF72E
:103AE000FDFC0490B81DE378049A059900930192B7
:103AF00002910390A3786278217844A0FEF7BAFE81
:103B000051A0FEF7B7FE0120504908706CE010A8E4
:103B10000079082865D110A841796846417610A837
:103B200081796846017610A8C079010210A88079D1
:103B3000081801B26846418310A8407A010210A813
:103B4000007A081801B26846818310A8C07A010281
:103B500010A8807A081801B26846C183002508E0E1
:103B60002846083011A9085C41B208A84155681CD4
:103B700085B231980838A842F2DC6846408B86B29C
:103B800000216846418306A83199FFF78FF9059017
:103B9000FFF7A4FC01B2684641831A21415EB1429D
:103BA0000AD06946498B88B2FFF798FC0246314635
:103BB000059027A0FEF75EFEB81D6B461E21595EDC
:103BC0001C229A5EE3780093019202910390A378FD
:103BD000627821782948FEF74DFE01201B490870C4
:103BE00002E027A0FEF746FE002035B0F0BD000041
:103BF000B80B0000FFFF0000746D705F63686563C1
:103C00006B73756D203D2025780D0A005265706C30
:103C1000792066726F6D2025642E25642E25642E12
:103C20002564202049443A2578205365714E756DEE
:103C30003A257820203A646174612073697A65209E
:103C400025642062797465730D0A00008A000020E3
:103C5000200A20436865636B53756D206973206982
:103C60006E20636F72726563742025782073686FAD
:103C70006C64206265202578200A0000DC58000072
:103C800020556E6B6F6E776E206D73672E200A0065
:103C9000FEB506460D460020364908700820364914
:103CA000087000204870354908880988491C334B42
:103CB0001980FFF713FC00B22F498880304908882B
:103CC0000988491C2E4B1980FFF708FC00B22A49CD
:103CD000C88000240CE02046E117490F0918C910DC
:103CE000C900611A4AB2244908310A55601C84B2DD
:103CF000202CF0DB00202049488028211E48FFF7B7
:103D0000D5F80746FFF7EAFB00B21B4948801D487B
:103D10002B4628220090304600F004FD002803D1F5
:103D200019A0FEF7A7FD22E021A0FEF7A3FDE87889
:103D30000090AB786A78297827A0FEF79BFD0E49A2
:103D4000498888B2FFF7CAFB07460B49C98888B281
:103D5000FFF7C4FB08490190898888B2FFF7BEFBD2
:103D60003B460090014620A0019AFEF783FD00200B
:103D7000FEBD00008A000020FE0100208600002019
:103D800088000020B80B00000D0A204661696C20F5
:103D9000746F2073656E642070696E672D72657034
:103DA0006C79207061636B65742020720A000000DA
:103DB00053656E642050696E672052657175657336
:103DC000742020746F2044657374696E6174696F28
:103DD0006E2028200000000025642E25642E256416
:103DE0002E256420290000002049443A257820200F
:103DF0005365714E756D3A257820436865636B5342
:103E0000756D3A25780D0A0005224A4B1A6100BFEC
:103E1000484A126802231A40022AF9D10122454B6E
:103E20001A6311225A631A46926960231A43414B5E
:103E30009A611A46926920239A433E4B9A611A4628
:103E4000926960231A433B4B9A613B4A9A611A4636
:103E5000926920231A43374B9A61002002E0354AC9
:103E60001168401C6428FAD3324A926980239A432D
:103E7000304B9A611A46926940239A432D4B9A61BE
:103E8000002002E02B4A1168401C6428FAD3294A1A
:103E9000926980239A43274B9A61002002E0254AC9
:103EA0001168401CFF22F5329042F8D3214A9269F2
:103EB00080239A431F4B9A6100BF1E4A1268102349
:103EC0001A40102AF9D1FF2204321A4B1A6200BF9D
:103ED000184A1268FF2301331A409A42F8D1121D82
:103EE000144B5A6200BF134A126801235B021A4046
:103EF0009A42F8D1FF2205320E4B9A6200BF0D4A5A
:103F0000126801239B021A409A42F8D10B4A094BCE
:103F1000DA6200BF074A12680123DB021A409A42A4
:103F2000F8D1002002E0034A1168401C6428FAD34B
:103F30007047000000100040C20700080441000064
:103F4000F7B582B00446164600200190002500BF58
:103F5000082C02DD401E05B0F0BD00BF00BFA1006F
:103F6000491CC800FEF708FE0007000F012802D018
:103F70000420C043EFE700BF00BF002E02D10D2098
:103F8000C043E8E700BFA100491CC9000F2252024C
:103F90008818FEF7F1FD8006050CB54200DA2E46C2
:103FA0003EE02046FFF7AEF90546A100491CC900D6
:103FB000032212028818FEF7DFFD019001981728EE
:103FC00020D001981C2817D1002D00D029E02046D0
:103FD000FFF7CFF90746A100491CC9001F221202B2
:103FE0008818FEF7C9FD800287420BD12046FEF7F4
:103FF000D7FF0620C043AEE72046FEF7D1FF0620DC
:10400000C043A8E70120A0401449098808400028BF
:1040100003D0002D01D100209DE7002D00D000E04D
:10402000BFE700BFB54200DA2E463246204603996C
:1040300000F03CFEA100491CC900C81DF930402118
:10404000FEF72EFE00BFA100491CC900C81DF930B3
:10405000FEF792FD0028F6D130467CE738000020BC
:10406000FFB583B0044616461F46002500BF082C46
:1040700002DD681E07B0F0BD00BFA100491CC800EA
:10408000FEF77AFD02900007000F022804D00328F3
:1040900004D0042803D100E000BF00BF02E00420E8
:1040A000C043E7E700BF00BF002E02D10D20C04390
:1040B000E0E700BF60008149085A002820D11DE0D8
:1040C0002046FFF71FF90546A100491CC90003223D
:1040D00012028818FEF750FD002801D1001FC9E721
:1040E0000120A040764909880840002803D0002D0F
:1040F00001D10020BEE7002D00D000E0E0E700BFC6
:1041000002984007400F022802D004287ED156E0D2
:1041100060006A49085A002840D1082269462046B2
:1041200000F0C4FDA100491CC900C81DF9304021A0
:10413000FEF7B6FD00BFA100491CC900C81DF9303B
:10414000FEF71AFD0028F6D16846007838706846F8
:104150004078787068468078B8706846C078F870A3
:10416000684601790C9801800C9800780102684635
:104170004079081881B20C98018068468079610006
:104180004E4A505260001146085C01026846C079F0
:1041900008186100505280204A490855600047497C
:1041A000085AB04201DD354602E0600043490D5A2D
:1041B0002E462A462046049900F078FD52E0600021
:1041C0003E49085A002835D102226946204600F0AF
:1041D0006DFDA100491CC900C81DF9304021FEF742
:1041E0005FFD00BFA100491CC900C81DF930FEF7E2
:1041F000C3FC0028F6D16846007861002F4A50526F
:1042000060001146085C0102684600E022E0407848
:104210000818801E6100505260001146085A2A4951
:10422000884204DD2046FEF7BBFE284822E78020B6
:104230002449085560002149085AB04201DD35463D
:1042400002E060001D490D5A2A462046049900F0FC
:104250002DFD07E02946204600F06BFD6000174960
:104260000D5200BF00BFA100491CC900C81DF93094
:104270004021FEF715FD00BFA100491CC900C81D63
:10428000F930FEF779FC0028F6D160000B49085A96
:10429000401B6100094A505260001146085A00282C
:1042A00006D00848005D012108430649085502E090
:1042B0000020044908552846DCE60000EE010020F5
:1042C000380000203C000020EA05000017FCFFFF3A
:1042D000002801D0002906D1054A064B1A61064B79
:1042E000044A536102E0034A1061516170470000C3
:1042F0004B4E000058000020494E000000BF0B4A02
:10430000128801235B021A40002AF8D0002801D04D
:10431000002906D1064A054B9A61064B034AD36130
:1043200002E0024A9061D16170470000580000200D
:10433000895000008D500000F0B5564B9D44044656
:104340000027A100491CC900032212028818FEF7A9
:1043500013FC002813D0132873D0172820D01C2852
:1043600070D14DA0FEF786FA2046FEF719FE0746EB
:10437000012803D0474B5B429D44F0BD87E053A02A
:10438000FEF778FA002350220121204600F0D4FAEB
:104390000746A04203D052A0FEF76CFAEAE776E0A7
:1043A000A100491CC900032212028818FEF7E4FB91
:1043B0000646314650A0FEF75DFAA100491CC9002F
:1043C000C81DFF30FA30FEF7D7FBC007C00F00282A
:1043D00008D0A100491CC900C81DFF30FA300121D6
:1043E000FEF75EFC00250121890291A8FCF716F872
:1043F0000122920291A92046FFF7A2FD0546002D59
:1044000004D1294644A0FEF735FA40E091229200FB
:1044100048496846FBF720FF6846FBF7BFFF86B2B6
:1044200032466946204600F0C1F80546694642A07A
:10443000FEF720FA6846FBF7B1FFA84207D02946ED
:1044400001E00BE022E03EA0FEF714FA1FE0204658
:10445000FEF7A6FE41A0FEF70DFA18E0A100491CE8
:10446000C900032212028818FEF786FB054629467A
:1044700041A0FEF7FFF92046FFF738F8074601286C
:1044800003D043A0FEF7F6F974E700E000BF00BFD9
:1044900000BF6FE7BCF9FFFF0A50656572206861D5
:1044A000732072657175657374656420746F206321
:1044B0006C6F73652063757272656E7420636F6EC6
:1044C0006E656374696F6E2E0A0000000D0A20533A
:1044D0004F434B5F434C4F5345442021200D0A006E
:1044E0000D0A20736F636B657420686173204572D9
:1044F000726F7221000000000D0A20534F434B5F82
:1045000045535441424C4953484544203D20255889
:10451000202E0D0A000000000D0A2052654356208F
:10452000686174204572726F7220212121202564F8
:1045300020000000985600002573200D0A0000009E
:104540000D0A2073656E6420686174204572726F75
:10455000722021212120256420000000534F434B6D
:104560005F45535441424C49534845442066696E67
:10457000697368200D0A00000D0A534F434B5F49D1
:104580004E4954203D202558202E0D0A00000000E1
:104590000D0A20534F434B5F494E495420213D2083
:1045A000534F434B5F4F4B20210D0A00F7B5044694
:1045B00015460026002700BF082C01DD701EFEBD39
:1045C00000BF00BFA100491CC800FEF7D5FA0007D4
:1045D000000F012802D00420C043F0E700BF00BF55
:1045E000002D02D10D20C043E9E700BFA100491C06
:1045F000C900032212028818FEF7BEFA0646172EDB
:1046000004D01C2E02D00620C043D8E70120A040D1
:1046100042490988084000282AD0A100491CC90045
:10462000C81DFF30FA30FEF7A7FAC606F60E1020B6
:104630003040002810D0A100491CC900C81DFF301F
:10464000FA301021FEF72CFB0120A04033490988E5
:104650008143324801800BE008203040002805D01B
:104660002046FEF79DFC0C20C043A8E70020A6E7EB
:10467000A100491CC9001F2212028818FEF77CFA0B
:104680008006070CBD4200DD3D4624E02046FEF7D3
:1046900070FE0746A100491CC900032212028818B7
:1046A000FEF76AFA0646172E07D01C2E05D02046C4
:1046B000FEF776FC0620C04381E70120A0401849A0
:1046C00009880840002803D0BD4201DD002076E7BC
:1046D000BD4200DC00E0D9E700BF2A462046019930
:1046E00000F057FBA100491CC900C81DF93020216A
:1046F000FEF7D6FA00BFA100491CC900C81DF93059
:10470000FEF73AFA0028F6D10120A04003490988B3
:10471000084302490880284651E700003A0000207B
:1047200038000020FFB583B0044615461E4600271A
:104730000020029000BF082C02DD401E07B0F0BD33
:1047400000BFA100491CC800FEF716FA0007000FC1
:10475000022804D0032803D0042803D101E000BFBD
:1047600000BF02E00420C043E8E700BF00BF002D07
:1047700002D10D20C043E1E700BF307801900198DD
:10478000010270780818019001980102B0780818A9
:10479000019001980102F07808180190A100491CCD
:1047A000C800FEF7E9F900200199002901D1012193
:1047B00000E000210840002802D00B20C043BDE7E4
:1047C000A100491CC800FEF7D7F900200C99002968
:1047D00001D1012100E000210840002802D00A2078
:1047E000C043ABE7A100491CC9000322120288188C
:1047F000FEF7C2F90746422F06D0222F04D0322FEF
:1048000002D00620C04399E7A100491CC900032239
:104810009202881804223146FEF784FA0C9A11128B
:10482000A200521CD20001231B03D018FEF738FA55
:104830000C9AD1B2A200521CD20001231B03D21841
:10484000D01DF930FEF72CFAA100491CC9001F2227
:1048500012028818FEF790F98006000C0290029868
:10486000854200DD029D1FE02046FEF782FD02909A
:10487000A100491CC900032212028818FEF77CF926
:10488000002801D1001F59E70120A04029490988CB
:104890000840002804D00298854201DD00204DE741
:1048A0000298854200DC00E0DEE700BF2A46204691
:1048B000049900F06EFAA100491CC900C81DF93026
:1048C0002021FEF7EDF900BFA100491CC900C81D59
:1048D000F930FEF751F90028F6D127E0A100491C74
:1048E000C900C81DFF30FA30FEF746F9C706FF0EB3
:1048F00010203840002809D0A100491CC900C81D5B
:10490000FF30FA301021FEF7CBF910E008203840D4
:1049100000280BD0A100491CC900C81DFF30FA3087
:104920000821FEF7BDF90C20C04307E7D6E700BF1A
:10493000284603E738000020F8B504460E4617461F
:104940001D4600BF082C02DD0020C043F8BD00BF9B
:10495000012E06D0022E10D0032E10D0042E0FD11F
:104960000CE0042269460F200002FEF749F9009886
:10497000002801D1C01EE9E700BF00BF00BF02E070
:104980000420C043E2E700BF04202840002802D0F2
:104990000520C043DAE7002D22D0012E02D0022EDE
:1049A0001CD106E021202840002801D1801FCDE73E
:1049B00015E020202840002805D08020284000282D
:1049C00001D1801FC2E710202840002805D0802098
:1049D0002840002801D1801FB8E700E000BF00BFD9
:1049E0002046FEF7DDFA2A46F0231A4032431146EC
:1049F000A200521CD000FEF753F9002F0ED12F4811
:104A000007880088401C2D490880084600882C49EA
:104A1000884203D103208003284908803912A2006C
:104A2000521CD20001239B02D018FEF739F9F9B2CB
:104A3000A200521CD20001239B02D218D01DF930D3
:104A4000FEF72EF9A100491CC900C81DF93001214B
:104A5000FEF726F900BFA100491CC900C81DF930A6
:104A6000FEF78AF80028F6D10120A04015490988F0
:104A7000814314480180E807C00FA040114909880C
:104A80000843104908800120A0400F49098881434C
:104A90000D480180002061000C4A50520C49085515
:104AA00000BFA100491CC900032212028818FEF7AA
:104AB00063F80028F5D060B248E700003600002017
:104AC000F0FF0000380000203A000020EE01002036
:104AD0003C00002010B51F4800210160416081604A
:104AE000C16001201B49087000200872C8710720AE
:104AF00008710220C870002048710420487000200E
:104B00008870022088711448C8600846FDF7D4FCFC
:104B10001048FDF7EBFC0F48FDF784FB0D48FDF74F
:104B200067FB0C48FDF798FB0A48FDF7ABFC09480A
:104B3000FDF790FC0748FDF7A9FB01200749087025
:104B40000846FDF7A3F90123002202210348FDF7DF
:104B5000B3F910BDA001002000400040100000206B
:104B60000146002904D0012904D0022906D103E01E
:104B7000034870470348FCE70348FAE70020F8E7DA
:104B8000006000400070004000D000400146002955
:104B900002D04868002801D1FC2070474868006CAA
:104BA00020221040002801D00020F6E74868006C61
:104BB00010221040002801D00120EEE70220ECE78F
:104BC00070B5064634462046FFF7E0FF0546294605
:104BD000204600F029F8002D0FD12078000111495E
:104BE0000858002809D0227812010B46D2185068C4
:104BF000227812019958884712E0012D10D12078AF
:104C00000001084940188068002809D02278120164
:104C10000B46D218D06822781201D21891688847C2
:104C200070BD000090000020002802D04268002AD9
:104C300000D17047002906D14268526C20231A43E4
:104C400043685A6407E0012905D14268526C102379
:104C50001A4343685A6400BFEBE7000070B504468E
:104C600025462846FDF744FE0249087002A0FDF7DC
:104C700001FE70BD180000205465737420537461E8
:104C800072740D0A0000000010B50346002404E011
:104C90007D20C00000F004F8641C9C42F8D310BDD5
:104CA000002100E0491C8142FCD37047F7B582B077
:104CB00004461646002500200190002E01D105B0C3
:104CC000F0BDA100491CC9000522D2028818FDF7D9
:104CD00053FF0702A100491CC9000522D20289180E
:104CE000C81DF930FDF748FF381885B22902A00029
:104CF000C01CC00008180190324603990198FDF7C6
:104D00007FFFA81985B22912A200521CD2000523E8
:104D1000DB02D018FDF7C4FFE9B2A200521CD2009A
:104D20000523DB02D218D01DF930FDF7B9FF00BF13
:104D3000C5E7F8B504460E460025A100491CC90088
:104D40000522D2028818FDF717FF0702A100491CAF
:104D5000C9000522D2028918C81DF930FDF70CFFE1
:104D6000381885B2A81985B22912A200521CD200A7
:104D70000523DB02D018FDF793FFE9B2A200521C15
:104D8000D2000523DB02D218D01DF930FDF788FFD1
:104D9000F8BDF7B582B00446164600250020019004
:104DA000002E01D105B0F0BDA100491CC9000922A7
:104DB00092028818FDF7E0FE0702A100491CC90015
:104DC000092292028918C81DF930FDF7D5FE38185E
:104DD00085B22902A000801CC0000818019032464C
:104DE00003990198FDF79EFFA81985B22912A20028
:104DF000521CD20009239B02D018FDF751FFE9B2E3
:104E0000A200521CD20009239B02D218D01DF930F7
:104E1000FDF746FF00BFC5E70146087870470170FF
:104E2000704770B50446E5B22612F02028400146CE
:104E300015200002FDF734FF314617200002FDF770
:104E40002FFF70BD704770477047704770B50026E0
:104E50000024002515200002FDF78EFEF0210840F9
:104E6000064617200002FDF787FE04462546280265
:104E7000801985B2284670BD70B500260024002533
:104E80000B204002FDF778FE06460320C002FDF726
:104E900073FE044625462802801985B2284670BD57
:104EA00010B504460622214609200002FDF7A8FE9F
:104EB000042221460E319001FDF7A2FE0422214674
:104EC0000A3105200002FDF79BFE0422A11D0F20E0
:104ED0000002FDF795FE07480078A0740548417868
:104EE000E17481782175C178617503480078A075F7
:104EF00010BD0000800000208400002010B50020BC
:104F0000FDF73AFE10BD70B504461B200002FDF708
:104F100033FE207019200002FDF72EFE05020D2041
:104F20004002FDF729FE2818608070BDF8B50546DF
:104F30000E46002700F0ABF8002D1DD000BF002466
:104F400009E0285DC01947B2102F02DD0020C043E0
:104F5000F8BD601C44B2082CF3DB00240AE0295D94
:104F6000A200521CD2001F231B02D018FDF798FE8E
:104F7000601C44B2082CF2DB002E1DD00027002458
:104F800009E0305DC01947B2102F02DD0020C04398
:104F9000DEE7601C44B2082CF3DB00240AE0315D3C
:104FA000A200521CD2000F235B02D018FDF778FE3E
:104FB000601C44B2082CF2DB0020C9E770B504463F
:104FC000E5B2261229460B204002FDF769FE314664
:104FD0000320C002FDF764FE70BD000010B504465A
:104FE0000622214609200002FDF79CFE04222146EC
:104FF0000E319001FDF796FE042221460A3105206C
:105000000002FDF78FFE0422A11D0F200002FDF714
:1050100089FEA07C05490870E07C4870207D88707E
:10502000607DC870A07D0249087010BD800000201E
:105030008400002070B5044600253A2120468843AC
:10504000002801D0681E70BD0020FDF795FD0546C3
:1050500028462043054629460020FDF721FE002072
:10506000F1E710B5044621781B200002FDF718FE79
:105070006088011219200002FDF712FEA1780D20B0
:105080004002FDF70DFE10BD00207047704700B5CF
:1050900085B00622694609200002FDF7B1FD042211
:1050A00004A99001FDF7ACFD042203A9052000022C
:1050B000FDF7A6FD042202A90F200002FDF7A0FDC6
:1050C00080210020FDF7ECFD0020FDF755FD0622B4
:1050D000694609200002FDF725FE042204A990017B
:1050E000FDF720FE042203A905200002FDF71AFEA9
:1050F000042202A90F200002FDF714FE05B000BD36
:1051000070B50446002517204002FDF735FD054621
:10511000402028408009207038202840202802D0D4
:10512000382803D100BF0120607002E000206070C9
:1051300000BF00BF38202840102805D0182802D012
:10514000202804D100BF00BF0120A07002E0002091
:10515000A07000BF00BF38202840082805D01828BC
:1051600002D0202804D100BF00BF0120E07002E07F
:105170000020E07000BF00BF70BD10B517204002D6
:10518000FDF7FAFCC007C00F002801D0012400E0A1
:105190000024204610BD10B5002417204002FDF762
:1051A000EBFC30210840002801D0012400E000245D
:1051B000204610BD10B517204002FDF7DDFC044667
:1051C0008021204688430446214617204002FDF7EF
:1051D00067FD17204002FDF7CFFC04468020044302
:1051E000214617204002FDF75BFD10BD70B5054656
:1051F00000242878012802D14020044303E0402104
:105200002046884304466878012802D138200443A8
:1052100012E0E878012808D1A878012802D11820E6
:10522000044309E00820044306E0A878012802D1DD
:105230001020044300E000BF214617204002FDF784
:105240002FFDFFF7B7FF70BD70B50546002417208E
:105250004002FDF791FC044640202040002801D187
:10526000401E70BD3821204688430446012D02D1DE
:105270003020044301E03820044321461720400237
:10528000FDF70EFDFFF796FF17204002FDF774FCB7
:105290000446012D05D130202040002807D00020F1
:1052A000DFE738202040002801D00020D9E7002087
:1052B000C043D6E710B500290AD00878002807D0E7
:1052C00005487844FCF782FD002801D0002010BD7D
:1052D0000248784410BD00007E06000076060000FB
:1052E00010B500290AD00878002807D0054878446E
:1052F000FCF76CFD002801D0002010BD0248784466
:1053000010BD00006E0600006606000070B50125A5
:105310000400ED074C4020D4441A01D2001B0919A7
:10532000C60D4B00F2B2FF2A29D01B0E2CD0000272
:105330000C02D31A2C43DC402843051910D2280A4A
:1053400002D3401C6D0611D0761EF6058019FF2A87
:1053500000DA70BDC00DC00570BD694000F07AF87C
:1053600001200543C541521C761CE8E764089C40B7
:10537000C90161408900E7D10124A043E4E71B0E85
:10538000440200D0034870BD002AFCD1C00FC00702
:1053900070BD00BF0000C07F70B5420064414B008B
:1053A0005C41120E39D01B0E38D0FF2A3CD0FF2BA7
:1053B0003AD040024902400A490A060045184E43C5
:1053C000000A090AD2184843ED017F3A0104731A12
:1053D0004019190C4318990F04D001215B084907A3
:1053E0005B1A521CD80904D3401CF50301D19D0659
:1053F00007D0FF2A08D2D50506D0E407204340197C
:1054000070BD0125A843F4E7002A01DCE00770BD68
:105410002402FF202043C00570BD1B0EFF2A03D0CD
:10542000FF2B01D0E00770BDFF2645003606B542D0
:1054300006D84D00B54203D8D218FF2A00D0E7E7BE
:10544000004870BD0000C07F70B501250400ED0765
:105450004C4022D4441A02D26C40001B0919C60DDC
:105460004B00F2B2FF2A4BD01B0E50D000020C02B0
:10547000D31A2C43DC40A843051B05D5AD0019D336
:105480006D08761E521E37D0F605280A01D2801903
:1054900070BD70416D0603D070BD6940FFF73CFFE1
:1054A0009C4009026140490001D0401E70BD0124AA
:1054B000A04370BD6D081DD001202B0C01D12D041F
:1054C00010302B0E01D12D0208302B0F01D12D01F0
:1054D000001DAB0F01D1AD00801CEB0F01D16D00A1
:1054E000401C6D00361A121A680AF5054019012A87
:1054F00002DB70BD002070BDC036300AC00770BD31
:105500001B0E440201D1FF2B00D1024870BD002ABE
:10551000F0D070BD0000C07F03B4024878448446D8
:1055200003BC604793BBFFFF03B402487844844642
:1055300003BC6047FDBDFFFF313100001012133185
:10554000080931003131000031310000020202024D
:105550000202020202020202020202028182838429
:1055600085868788898B8C8D8E8F9192939596975F
:10557000999A9C9D9FA0A2A3A5A7A8AAACAEB0B2E1
:10558000B3B5B7B9BCBEC0C2C5C7C9CCCED1D4D7DC
:10559000D9DCDFE2E6E9ECF0F3F7FAFE0000000008
:1055A000000000003031323334353637383941426B
:1055B0004344454640305800303132333435363775
:1055C0003839616263646566403078000400000821
:1055D0000000000000000002000100001030313225
:1055E0003334353637383961626364656678700004
:1055F0003031323334353637383941424344454609
:105600005850000002400000000000A00000000010
:1056100005400000000000C8000000000C40000031
:105620000000409C00000000194000000020BCBEAB
:105630000000000034400000BFC91B8E00000004C1
:10564000B5400000504BCFD06607E2CF010000000C
:105650006C4100003E8251AADFEEA7340100000039
:10566000D9420000DCB5A0E23A301F97FFFFFFFFF0
:10567000B4450000FD25A0C8E9A3C14FFFFFFFFF0F
:10568000FF3F00000000008000000000FF3F00001E
:105690000000008000000000485454502F312E318B
:1056A00020323030204F4B0D0A436F6E74656E749C
:1056B0002D4C656E6774683A203535320D0A436F9C
:1056C0006E74656E742D547970653A2074657874C3
:1056D0002F68746D6C0D0A0D0A3C48544D4C3E0DFC
:1056E0000A3C424F4459203E0D0A0D0A3C63656E48
:1056F0007465723E3C696D67207372633D22687405
:105700007470733A2F2F7777772E706F696E74628B
:105710006C616E6B2E64652F66696C65732F6173A7
:10572000736574732F736C696465722F737570651C
:10573000726769726C2E6A706722202F3E3C2F635D
:10574000656E7465723E3C63656E7465723E3C6165
:105750002068726566203D2268747470733A2F2F3A
:105760007777772E706F696E74626C616E6B2E64E2
:10577000652F656E2F223E3C696D67207372633D15
:105780002268747470733A2F2F7777772E706F6951
:105790006E74626C616E6B2E64652F66696C6573E6
:1057A0002F7468656D652F69636F6E732F617070FC
:1057B0006C652D746F7563682D69636F6E2E706EE6
:1057C0006722202F3E3C2F613E3C2F63656E74653F
:1057D000723E3C63656E7465723E3C62723E3C662E
:1057E0006F6E742073697A653D2231352220636FB4
:1057F0006C6F723D22626C7565223E706F696E74CB
:10580000626C616E6B2D73656375726974793C2F80
:10581000666F6E743E3C2F62723E3C2F63656E7401
:1058200065723E3C703E3C63656E7465723E3C62E0
:10583000723E3C666F6E742073697A653D22352234
:105840003E506F696E74426C616E6B205365637578
:10585000726974793C62723E706F7765726564201C
:1058600062793A3C62723E537465656E204861729B
:10587000626163682041473C62723E416C746520FE
:1058800047617274656E2036303C62723E3531334A
:105890003731204C657665726B7573656E3C62724C
:1058A0003E4765726D616E793C62723E466F6E3A3C
:1058B000202B343920323134203331353231322DFE
:1058C000300D0A3C2F74723E3C2F424F44593E0D1E
:1058D0000A3C2F48544D4C3E000000005265717543
:1058E0006573742066726F6D2025642E25642E25E5
:1058F000642E2564202049443A2578205365714E52
:10590000756D3A257820203A646174612073697A54
:10591000652025642062797465730D0A000000001B
:105920006C5A00000000002090000000F40000000D
:10593000FC5A0000900000202032000010010000FE
:105940001C00000043000000F8FFFFFF0C000000F7
:105950000E0000000F0000002E00000010010000EB
:1059600043000000F8FFFFFF00404040404040403F
:105970004040414141414140404040404040404022
:1059800040404040404040404005020202020202C6
:105990000202020202020202022020202020202015
:1059A0002020200202020202020290909090909029
:1059B00010101010101010101010101010101010E7
:1059C000101010100202020202028888888888885B
:1059D0000808080808080808080808080808080847
:1059E000080808080202020240000000000000004F
:1059F00000000000000000000000000000000000A7
:105A00000000000000000000000000000000000096
:105A10000000000000000000000000000000000086
:105A20000000000000000000000000000000000076
:105A30000000000000000000000000000000000066
:105A40000000000000000000000000000000000056
:105A50000000000000000000000000000000000046
:105A60000000000000000000000000000000000036
:105A7000000000000000000000D8B8050000000091
:105A800000000000000008DC4F0F3CC0A800C8FF69
:105A9000FFFF00C0A800010000000001000000009E
:105AA000000000C000000000000000000000000036
:105AB0000008DCAFFEFFFFFFFF00C0A8BC58C0A875
:105AC000BC0100000102573535303000454E000062
:105AD000474E00004B4E0000494E0000194E00009A
